{
  "contractName": "Doctor",
  "abi": [
    {
      "inputs": [],
      "payable": false,
      "stateMutability": "nonpayable",
      "type": "constructor"
    },
    {
      "anonymous": false,
      "inputs": [
        {
          "indexed": false,
          "internalType": "uint256",
          "name": "pos",
          "type": "uint256"
        },
        {
          "indexed": false,
          "internalType": "string",
          "name": "uid",
          "type": "string"
        },
        {
          "indexed": false,
          "internalType": "string",
          "name": "fname",
          "type": "string"
        },
        {
          "indexed": false,
          "internalType": "string",
          "name": "lname",
          "type": "string"
        },
        {
          "indexed": false,
          "internalType": "uint256",
          "name": "hospital_id",
          "type": "uint256"
        },
        {
          "indexed": false,
          "internalType": "string",
          "name": "password",
          "type": "string"
        }
      ],
      "name": "doctor_node_added",
      "type": "event"
    },
    {
      "constant": true,
      "inputs": [],
      "name": "doctorCount",
      "outputs": [
        {
          "internalType": "uint256",
          "name": "",
          "type": "uint256"
        }
      ],
      "payable": false,
      "stateMutability": "view",
      "type": "function"
    },
    {
      "constant": true,
      "inputs": [
        {
          "internalType": "uint256",
          "name": "",
          "type": "uint256"
        }
      ],
      "name": "doctors",
      "outputs": [
        {
          "internalType": "uint256",
          "name": "pos",
          "type": "uint256"
        },
        {
          "internalType": "string",
          "name": "uid",
          "type": "string"
        },
        {
          "internalType": "string",
          "name": "fname",
          "type": "string"
        },
        {
          "internalType": "string",
          "name": "lname",
          "type": "string"
        },
        {
          "internalType": "uint256",
          "name": "hospital_id",
          "type": "uint256"
        },
        {
          "internalType": "string",
          "name": "password",
          "type": "string"
        }
      ],
      "payable": false,
      "stateMutability": "view",
      "type": "function"
    },
    {
      "constant": false,
      "inputs": [
        {
          "internalType": "string",
          "name": "_fname",
          "type": "string"
        },
        {
          "internalType": "string",
          "name": "_lname",
          "type": "string"
        },
        {
          "internalType": "uint256",
          "name": "_hospital_id",
          "type": "uint256"
        },
        {
          "internalType": "string",
          "name": "_uid",
          "type": "string"
        },
        {
          "internalType": "string",
          "name": "_password",
          "type": "string"
        }
      ],
      "name": "createDoctor",
      "outputs": [],
      "payable": false,
      "stateMutability": "nonpayable",
      "type": "function"
    }
  ],
  "bytecode": "0x6080604052600080553480156200001557600080fd5b50620000a36040518060400160405280600681526020016529b0b636b0b760d11b8152506040518060400160405280600481526020016325b430b760e11b8152506001604051806040016040528060058152602001643632b1343560d91b815250604051806040016040528060088152602001671c185cdcdddbdc9960c21b8152506200013560201b60201c565b6200012f60405180604001604052806005815260200164426f62627960d81b8152506040518060400160405280600481526020016311195bdb60e21b8152506001604051806040016040528060058152602001641c5b191e5960da1b815250604051806040016040528060088152602001671c185cdcdddbdc9960c21b8152506200013560201b60201c565b62000499565b6000805460019081018083556040805160c08101825282815260208082018881528284018c9052606083018b9052608083018a905260a0830188905293865284815291909420845181559151805192936200019993908501929190910190620003f4565b5060408201518051620001b7916002840191602090910190620003f4565b5060608201518051620001d5916003840191602090910190620003f4565b506080820151600482015560a08201518051620001fd916005840191602090910190620003f4565b509050507f01aa68027208e2f20dec6b20e615e17b12cbbee525fc25f0c143885a0b3c7afd6000548387878786604051808781526020018060200180602001806020018681526020018060200185810385528a818151815260200191508051906020019080838360005b838110156200028157818101518382015260200162000267565b50505050905090810190601f168015620002af5780820380516001836020036101000a031916815260200191505b5085810384528951815289516020918201918b019080838360005b83811015620002e4578181015183820152602001620002ca565b50505050905090810190601f168015620003125780820380516001836020036101000a031916815260200191505b5085810383528851815288516020918201918a019080838360005b83811015620003475781810151838201526020016200032d565b50505050905090810190601f168015620003755780820380516001836020036101000a031916815260200191505b50858103825286518152865160209182019188019080838360005b83811015620003aa57818101518382015260200162000390565b50505050905090810190601f168015620003d85780820380516001836020036101000a031916815260200191505b509a505050505050505050505060405180910390a15050505050565b828054600181600116156101000203166002900490600052602060002090601f016020900481019282601f106200043757805160ff191683800117855562000467565b8280016001018555821562000467579182015b82811115620004675782518255916020019190600101906200044a565b506200047592915062000479565b5090565b6200049691905b8082111562000475576000815560010162000480565b90565b610a5280620004a96000396000f3fe608060405234801561001057600080fd5b50600436106100415760003560e01c80636efb1b841461004657806378522bc41461021b578063977adf9014610235575b600080fd5b6100636004803603602081101561005c57600080fd5b5035610472565b604051808781526020018060200180602001806020018681526020018060200185810385528a818151815260200191508051906020019080838360005b838110156100b85781810151838201526020016100a0565b50505050905090810190601f1680156100e55780820380516001836020036101000a031916815260200191505b5085810384528951815289516020918201918b019080838360005b83811015610118578181015183820152602001610100565b50505050905090810190601f1680156101455780820380516001836020036101000a031916815260200191505b5085810383528851815288516020918201918a019080838360005b83811015610178578181015183820152602001610160565b50505050905090810190601f1680156101a55780820380516001836020036101000a031916815260200191505b50858103825286518152865160209182019188019080838360005b838110156101d85781810151838201526020016101c0565b50505050905090810190601f1680156102055780820380516001836020036101000a031916815260200191505b509a505050505050505050505060405180910390f35b6102236106d1565b60408051918252519081900360200190f35b610470600480360360a081101561024b57600080fd5b810190602081018135600160201b81111561026557600080fd5b82018360208201111561027757600080fd5b803590602001918460018302840111600160201b8311171561029857600080fd5b91908080601f0160208091040260200160405190810160405280939291908181526020018383808284376000920191909152509295949360208101935035915050600160201b8111156102ea57600080fd5b8201836020820111156102fc57600080fd5b803590602001918460018302840111600160201b8311171561031d57600080fd5b91908080601f01602080910402602001604051908101604052809392919081815260200183838082843760009201919091525092958435959094909350604081019250602001359050600160201b81111561037757600080fd5b82018360208201111561038957600080fd5b803590602001918460018302840111600160201b831117156103aa57600080fd5b91908080601f0160208091040260200160405190810160405280939291908181526020018383808284376000920191909152509295949360208101935035915050600160201b8111156103fc57600080fd5b82018360208201111561040e57600080fd5b803590602001918460018302840111600160201b8311171561042f57600080fd5b91908080601f0160208091040260200160405190810160405280939291908181526020018383808284376000920191909152509295506106d7945050505050565b005b600160208181526000928352604092839020805481840180548651600296821615610100026000190190911695909504601f8101859004850286018501909652858552909491939290919083018282801561050e5780601f106104e35761010080835404028352916020019161050e565b820191906000526020600020905b8154815290600101906020018083116104f157829003601f168201915b50505060028085018054604080516020601f60001961010060018716150201909416959095049283018590048502810185019091528181529596959450909250908301828280156105a05780601f10610575576101008083540402835291602001916105a0565b820191906000526020600020905b81548152906001019060200180831161058357829003601f168201915b5050505060038301805460408051602060026001851615610100026000190190941693909304601f81018490048402820184019092528181529495949350908301828280156106305780601f1061060557610100808354040283529160200191610630565b820191906000526020600020905b81548152906001019060200180831161061357829003601f168201915b50505050600483015460058401805460408051602060026001851615610100026000190190941693909304601f810184900484028201840190925281815295969395939450908301828280156106c75780601f1061069c576101008083540402835291602001916106c7565b820191906000526020600020905b8154815290600101906020018083116106aa57829003601f168201915b5050505050905086565b60005481565b6000805460019081018083556040805160c08101825282815260208082018881528284018c9052606083018b9052608083018a905260a08301889052938652848152919094208451815591518051929361073993908501929190910190610982565b5060408201518051610755916002840191602090910190610982565b5060608201518051610771916003840191602090910190610982565b506080820151600482015560a08201518051610797916005840191602090910190610982565b509050507f01aa68027208e2f20dec6b20e615e17b12cbbee525fc25f0c143885a0b3c7afd6000548387878786604051808781526020018060200180602001806020018681526020018060200185810385528a818151815260200191508051906020019080838360005b83811015610819578181015183820152602001610801565b50505050905090810190601f1680156108465780820380516001836020036101000a031916815260200191505b5085810384528951815289516020918201918b019080838360005b83811015610879578181015183820152602001610861565b50505050905090810190601f1680156108a65780820380516001836020036101000a031916815260200191505b5085810383528851815288516020918201918a019080838360005b838110156108d95781810151838201526020016108c1565b50505050905090810190601f1680156109065780820380516001836020036101000a031916815260200191505b50858103825286518152865160209182019188019080838360005b83811015610939578181015183820152602001610921565b50505050905090810190601f1680156109665780820380516001836020036101000a031916815260200191505b509a505050505050505050505060405180910390a15050505050565b828054600181600116156101000203166002900490600052602060002090601f016020900481019282601f106109c357805160ff19168380011785556109f0565b828001600101855582156109f0579182015b828111156109f05782518255916020019190600101906109d5565b506109fc929150610a00565b5090565b610a1a91905b808211156109fc5760008155600101610a06565b9056fea265627a7a7231582069e93e3deadb55404bbdb5cd754f7f0a2bfb1e42501d7b713d4173a1d177173364736f6c63430005100032",
  "source": "pragma solidity ^0.5.0;\n\nimport \"./Hospital.sol\";\n\ncontract Doctor {\n    uint public doctorCount = 0;\n\n    struct Doctor {\n        uint pos;\n        string uid;\n        string fname;\n        string lname;\n\n        uint hospital_id;\n        string password;\n    }\n     event doctor_node_added(\n        uint pos,\n        string uid,\n        string fname,\n        string lname,\n        \n        uint hospital_id,\n        string password\n    );\n\n    mapping(uint => Doctor) public doctors;\n    \n    constructor() public {\n        createDoctor('Salman','Khan',1,'lebhj','password');\n        createDoctor('Bobby','Deol',1,'qldyd','password');\n    }\n\n    function createDoctor(string memory _fname, string memory _lname,  uint _hospital_id, string memory _uid, string memory _password) public {\n        doctorCount ++;\n        doctors[doctorCount] = Doctor(doctorCount,_uid,_fname,_lname,_hospital_id,_password);\n        emit doctor_node_added(doctorCount,_uid,_fname,_lname,_hospital_id, _password);\n    }\n}",
  "sourcePath": "/home/winstone/DRIVES/Projects/MP2/Blockchain-Healthcare/contracts/Doctor.sol",
  "compiler": {
    "name": "solc",
    "version": "0.5.16+commit.9c3226ce.Emscripten.clang"
  },
  "schemaVersion": "3.3.4",
  "updatedAt": "2021-04-18T14:11:03.734Z",
  "networkType": "ethereum",
  "devdoc": {
    "methods": {}
  },
  "userdoc": {
    "methods": {}
  }
}