{
  "contractName": "Hospital",
  "abi": [
    {
      "constant": true,
      "inputs": [],
      "name": "hospitalCount",
      "outputs": [
        {
          "name": "",
          "type": "uint256"
        }
      ],
      "payable": false,
      "stateMutability": "view",
      "type": "function",
      "signature": "0x350dadb7"
    },
    {
      "constant": true,
      "inputs": [
        {
          "name": "",
          "type": "uint256"
        }
      ],
      "name": "hospitals",
      "outputs": [
        {
          "name": "id",
          "type": "uint256"
        },
        {
          "name": "name",
          "type": "string"
        }
      ],
      "payable": false,
      "stateMutability": "view",
      "type": "function",
      "signature": "0x81dc6fd2"
    },
    {
      "inputs": [],
      "payable": false,
      "stateMutability": "nonpayable",
      "type": "constructor",
      "signature": "constructor"
    },
    {
      "anonymous": false,
      "inputs": [
        {
          "indexed": false,
          "name": "id",
          "type": "uint256"
        },
        {
          "indexed": false,
          "name": "name",
          "type": "string"
        }
      ],
      "name": "hospital_node_added",
      "type": "event",
      "signature": "0x4750190d2b69f465d694f800be813bc9cbc3f251f782bc2473413904985f40e4"
    },
    {
      "constant": false,
      "inputs": [
        {
          "name": "_name",
          "type": "string"
        }
      ],
      "name": "createHospital",
      "outputs": [],
      "payable": false,
      "stateMutability": "nonpayable",
      "type": "function",
      "signature": "0x55dc1066"
    },
    {
      "constant": false,
      "inputs": [
        {
          "name": "_id",
          "type": "uint256"
        }
      ],
      "name": "getHospital",
      "outputs": [
        {
          "components": [
            {
              "name": "id",
              "type": "uint256"
            },
            {
              "name": "name",
              "type": "string"
            }
          ],
          "name": "h",
          "type": "tuple"
        }
      ],
      "payable": false,
      "stateMutability": "nonpayable",
      "type": "function",
      "signature": "0xa7470f9a"
    }
  ],
  "bytecode": "0x60806040526000805534801561001457600080fd5b5060408051808201909152600d81527f44656d6f20486f73706974616c00000000000000000000000000000000000000602082015261005b90640100000000610060810204565b61022d565b600080546001908101808355604080518082018252828152602080820187815293865284815291909420845181559151805192936100a6939085019291909101906100e8565b509050507f4750190d2b69f465d694f800be813bc9cbc3f251f782bc2473413904985f40e4600054826040516100dd9291906101c7565b60405180910390a150565b828054600181600116156101000203166002900490600052602060002090601f016020900481019282601f1061012957805160ff1916838001178555610156565b82800160010185558215610156579182015b8281111561015657825182559160200191906001019061013b565b50610162929150610166565b5090565b61018091905b80821115610162576000815560010161016c565b90565b600061018e826101ef565b8084526101a28160208601602086016101f3565b6101ab81610223565b9093016020019392505050565b6101c181610180565b82525050565b604081016101d582856101b8565b81810360208301526101e78184610183565b949350505050565b5190565b60005b8381101561020e5781810151838201526020016101f6565b8381111561021d576000848401525b50505050565b601f01601f191690565b6106088061023c6000396000f3fe6080604052600436106100615763ffffffff7c0100000000000000000000000000000000000000000000000000000000600035041663350dadb7811461006657806355dc10661461009157806381dc6fd2146100b3578063a7470f9a146100e1575b600080fd5b34801561007257600080fd5b5061007b61010e565b6040516100889190610501565b60405180910390f35b34801561009d57600080fd5b506100b16100ac36600461041c565b610114565b005b3480156100bf57600080fd5b506100d36100ce366004610459565b61019c565b604051610088929190610515565b3480156100ed57600080fd5b506101016100fc366004610459565b610242565b60405161008891906104f0565b60005481565b6000805460019081018083556040805180820182528281526020808201878152938652848152919094208451815591518051929361015a93908501929190910190610302565b509050507f4750190d2b69f465d694f800be813bc9cbc3f251f782bc2473413904985f40e460005482604051610191929190610515565b60405180910390a150565b600160208181526000928352604092839020805481840180548651600296821615610100026000190190911695909504601f810185900485028601850190965285855290949193929091908301828280156102385780601f1061020d57610100808354040283529160200191610238565b820191906000526020600020905b81548152906001019060200180831161021b57829003601f168201915b5050505050905082565b61024a610380565b600082815260016020818152604092839020835180850185528154815281840180548651600296821615610100026000190190911695909504601f810185900485028601850190965285855290949193858401939092908301828280156102f25780601f106102c7576101008083540402835291602001916102f2565b820191906000526020600020905b8154815290600101906020018083116102d557829003601f168201915b5050505050815250509050919050565b828054600181600116156101000203166002900490600052602060002090601f016020900481019282601f1061034357805160ff1916838001178555610370565b82800160010185558215610370579182015b82811115610370578251825591602001919060010190610355565b5061037c929150610398565b5090565b60408051808201909152600081526060602082015290565b6103b291905b8082111561037c576000815560010161039e565b90565b6000601f820183136103c657600080fd5b81356103d96103d48261055c565b610535565b915080825260208301602083018583830111156103f557600080fd5b610400838284610588565b50505092915050565b600061041582356103b2565b9392505050565b60006020828403121561042e57600080fd5b813567ffffffffffffffff81111561044557600080fd5b610451848285016103b5565b949350505050565b60006020828403121561046b57600080fd5b60006104518484610409565b600061048282610584565b808452610496816020860160208601610594565b61049f816105c4565b9093016020019392505050565b805160009060408401906104c085826104e1565b50602083015184820360208601526104d88282610477565b95945050505050565b6104ea816103b2565b82525050565b6020808252810161041581846104ac565b6020810161050f82846104e1565b92915050565b6040810161052382856104e1565b81810360208301526104518184610477565b60405181810167ffffffffffffffff8111828210171561055457600080fd5b604052919050565b600067ffffffffffffffff82111561057357600080fd5b506020601f91909101601f19160190565b5190565b82818337506000910152565b60005b838110156105af578181015183820152602001610597565b838111156105be576000848401525b50505050565b601f01601f19169056fea265627a7a72305820528dd0ffe5ef39033664d9c59b2de6484b7cb6f34c456a6c1a7534c6469f01746c6578706572696d656e74616cf50037",
  "source": "pragma solidity ^0.5.0;\npragma experimental ABIEncoderV2;\n\ncontract Hospital {\n    uint public hospitalCount = 0;\n\n    struct Hospital {\n        uint id;\n        string name;\n    }\n    event hospital_node_added(\n        uint id,\n        string name\n    );\n    mapping(uint => Hospital) public hospitals;\n\n    constructor() public {\n        createHospital(\"Demo Hospital\");\n    }\n\n    function createHospital(string memory _name) public {\n        hospitalCount ++;\n        hospitals[hospitalCount] = Hospital(hospitalCount,_name);\n        emit hospital_node_added(hospitalCount,_name);\n\n    }\n\n    function getHospital(uint _id) public returns(Hospital memory h) {\n        return hospitals[_id];\n    }\n    \n}",
  "sourcePath": "C:\\Project\\Healthcare-Blockchain-main\\contracts\\Hospital.sol",
  "compiler": {
    "name": "solc",
    "version": "0.5.0+commit.1d4f565a.Emscripten.clang"
  },
  "schemaVersion": "3.0.1",
  "updatedAt": "2021-02-24T07:03:27.454Z",
  "devdoc": {
    "methods": {}
  },
  "userdoc": {
    "methods": {}
  }
}