{
  "contractName": "Patient",
  "abi": [
    {
      "constant": true,
      "inputs": [
        {
          "name": "",
          "type": "uint256"
        }
      ],
      "name": "patients",
      "outputs": [
        {
          "name": "id",
          "type": "uint256"
        },
        {
          "name": "fname",
          "type": "string"
        },
        {
          "name": "lname",
          "type": "string"
        },
        {
          "name": "hospital_id",
          "type": "uint256"
        }
      ],
      "payable": false,
      "stateMutability": "view",
      "type": "function",
      "signature": "0x93119a83"
    },
    {
      "constant": true,
      "inputs": [],
      "name": "patientCount",
      "outputs": [
        {
          "name": "",
          "type": "uint256"
        }
      ],
      "payable": false,
      "stateMutability": "view",
      "type": "function",
      "signature": "0xa0303c41"
    },
    {
      "inputs": [],
      "payable": false,
      "stateMutability": "nonpayable",
      "type": "constructor",
      "signature": "constructor"
    },
    {
      "anonymous": false,
      "inputs": [
        {
          "indexed": false,
          "name": "id",
          "type": "uint256"
        },
        {
          "indexed": false,
          "name": "fname",
          "type": "string"
        },
        {
          "indexed": false,
          "name": "lname",
          "type": "string"
        },
        {
          "indexed": false,
          "name": "hospital_id",
          "type": "uint256"
        }
      ],
      "name": "patient_node_added",
      "type": "event",
      "signature": "0x228b3aaab11df723bce96c7994449c4679de17773291c9964caed3a4b8eea55f"
    },
    {
      "constant": false,
      "inputs": [
        {
          "name": "_fname",
          "type": "string"
        },
        {
          "name": "_lname",
          "type": "string"
        },
        {
          "name": "_hospital_id",
          "type": "uint256"
        }
      ],
      "name": "createPatient",
      "outputs": [],
      "payable": false,
      "stateMutability": "nonpayable",
      "type": "function",
      "signature": "0x0d82f46c"
    }
  ],
  "bytecode": "0x60806040526000805534801561001457600080fd5b5061009a6040805190810160405280600581526020017f416b68696c0000000000000000000000000000000000000000000000000000008152506040805190810160405280600181526020017f47000000000000000000000000000000000000000000000000000000000000008152506001610124640100000000026401000000009004565b61011f6040805190810160405280600581526020017f53616761720000000000000000000000000000000000000000000000000000008152506040805190810160405280600181526020017f47000000000000000000000000000000000000000000000000000000000000008152506001610124640100000000026401000000009004565b610354565b600080546001908101808355604080516080810182528281526020808201898152828401899052606083018890529386528481529190942084518155915180519293610178939085019291909101906102b9565b50604082015180516101949160028401916020909101906102b9565b50606082015181600301559050507f228b3aaab11df723bce96c7994449c4679de17773291c9964caed3a4b8eea55f600054848484604051808581526020018060200180602001848152602001838103835286818151815260200191508051906020019080838360005b838110156102165781810151838201526020016101fe565b50505050905090810190601f1680156102435780820380516001836020036101000a031916815260200191505b50838103825285518152855160209182019187019080838360005b8381101561027657818101518382015260200161025e565b50505050905090810190601f1680156102a35780820380516001836020036101000a031916815260200191505b50965050505050505060405180910390a1505050565b828054600181600116156101000203166002900490600052602060002090601f016020900481019282601f106102fa57805160ff1916838001178555610327565b82800160010185558215610327579182015b8281111561032757825182559160200191906001019061030c565b50610333929150610337565b5090565b61035191905b80821115610333576000815560010161033d565b90565b610676806103636000396000f3fe6080604052600436106100565763ffffffff7c01000000000000000000000000000000000000000000000000000000006000350416630d82f46c811461005b57806393119a8314610199578063a0303c41146102af575b600080fd5b34801561006757600080fd5b506101976004803603606081101561007e57600080fd5b81019060208101813564010000000081111561009957600080fd5b8201836020820111156100ab57600080fd5b803590602001918460018302840111640100000000831117156100cd57600080fd5b91908080601f016020809104026020016040519081016040528093929190818152602001838380828437600092019190915250929594936020810193503591505064010000000081111561012057600080fd5b82018360208201111561013257600080fd5b8035906020019184600183028401116401000000008311171561015457600080fd5b91908080601f01602080910402602001604051908101604052809392919081815260200183838082843760009201919091525092955050913592506102d6915050565b005b3480156101a557600080fd5b506101c3600480360360208110156101bc57600080fd5b503561046b565b604051808581526020018060200180602001848152602001838103835286818151815260200191508051906020019080838360005b838110156102105781810151838201526020016101f8565b50505050905090810190601f16801561023d5780820380516001836020036101000a031916815260200191505b50838103825285518152855160209182019187019080838360005b83811015610270578181015183820152602001610258565b50505050905090810190601f16801561029d5780820380516001836020036101000a031916815260200191505b50965050505050505060405180910390f35b3480156102bb57600080fd5b506102c46105a9565b60408051918252519081900360200190f35b60008054600190810180835560408051608081018252828152602080820189815282840189905260608301889052938652848152919094208451815591518051929361032a939085019291909101906105af565b50604082015180516103469160028401916020909101906105af565b50606082015181600301559050507f228b3aaab11df723bce96c7994449c4679de17773291c9964caed3a4b8eea55f600054848484604051808581526020018060200180602001848152602001838103835286818151815260200191508051906020019080838360005b838110156103c85781810151838201526020016103b0565b50505050905090810190601f1680156103f55780820380516001836020036101000a031916815260200191505b50838103825285518152855160209182019187019080838360005b83811015610428578181015183820152602001610410565b50505050905090810190601f1680156104555780820380516001836020036101000a031916815260200191505b50965050505050505060405180910390a1505050565b600160208181526000928352604092839020805481840180548651600296821615610100026000190190911695909504601f810185900485028601850190965285855290949193929091908301828280156105075780601f106104dc57610100808354040283529160200191610507565b820191906000526020600020905b8154815290600101906020018083116104ea57829003601f168201915b50505060028085018054604080516020601f60001961010060018716150201909416959095049283018590048502810185019091528181529596959450909250908301828280156105995780601f1061056e57610100808354040283529160200191610599565b820191906000526020600020905b81548152906001019060200180831161057c57829003601f168201915b5050505050908060030154905084565b60005481565b828054600181600116156101000203166002900490600052602060002090601f016020900481019282601f106105f057805160ff191683800117855561061d565b8280016001018555821561061d579182015b8281111561061d578251825591602001919060010190610602565b5061062992915061062d565b5090565b61064791905b808211156106295760008155600101610633565b9056fea165627a7a723058203972f07ca85f76cc0626d6e5321ace943dadd3049fec1edb8962be8216816f180029",
  "source": "pragma solidity ^0.5.0;\n\nimport \"./Hospital.sol\";\n\ncontract Patient {\n    uint public patientCount = 0;\n\n    struct Patient {\n        uint id;\n        string fname;\n        string lname;\n\n        uint hospital_id;\n    }\n     event patient_node_added(\n        uint id,\n        string fname,\n        string lname,\n        \n        uint hospital_id\n    );\n\n    mapping(uint => Patient) public patients;\n    constructor() public {\n        createPatient('Akhil','G',1);\n        createPatient('Sagar','G',1);\n    }\n\n    function createPatient(string memory _fname, string memory _lname,  uint _hospital_id) public {\n        patientCount ++;\n        patients[patientCount] = Patient(patientCount,_fname,_lname,_hospital_id);\n        emit patient_node_added(patientCount,_fname,_lname,_hospital_id);\n\n    }\n\n}",
  "sourcePath": "C:/Project/Healthcare-Blockchain-main/contracts/Patient.sol",
  "compiler": {
    "name": "solc",
    "version": "0.5.0+commit.1d4f565a.Emscripten.clang"
  },
  "schemaVersion": "3.0.1",
  "updatedAt": "2021-02-24T07:03:27.454Z",
  "devdoc": {
    "methods": {}
  },
  "userdoc": {
    "methods": {}
  }
}