{
  "contractName": "Patient",
  "abi": [
    {
      "inputs": [],
      "payable": false,
      "stateMutability": "nonpayable",
      "type": "constructor"
    },
    {
      "anonymous": false,
      "inputs": [
        {
          "indexed": false,
          "internalType": "uint256",
          "name": "pos",
          "type": "uint256"
        },
        {
          "indexed": false,
          "internalType": "string",
          "name": "uid",
          "type": "string"
        },
        {
          "indexed": false,
          "internalType": "string",
          "name": "fname",
          "type": "string"
        },
        {
          "indexed": false,
          "internalType": "string",
          "name": "lname",
          "type": "string"
        },
        {
          "indexed": false,
          "internalType": "uint256",
          "name": "hospital_id",
          "type": "uint256"
        },
        {
          "indexed": false,
          "internalType": "string",
          "name": "password",
          "type": "string"
        }
      ],
      "name": "patient_node_added",
      "type": "event"
    },
    {
      "constant": true,
      "inputs": [],
      "name": "patientCount",
      "outputs": [
        {
          "internalType": "uint256",
          "name": "",
          "type": "uint256"
        }
      ],
      "payable": false,
      "stateMutability": "view",
      "type": "function"
    },
    {
      "constant": true,
      "inputs": [
        {
          "internalType": "uint256",
          "name": "",
          "type": "uint256"
        }
      ],
      "name": "patients",
      "outputs": [
        {
          "internalType": "uint256",
          "name": "pos",
          "type": "uint256"
        },
        {
          "internalType": "string",
          "name": "uid",
          "type": "string"
        },
        {
          "internalType": "string",
          "name": "fname",
          "type": "string"
        },
        {
          "internalType": "string",
          "name": "lname",
          "type": "string"
        },
        {
          "internalType": "uint256",
          "name": "hospital_id",
          "type": "uint256"
        },
        {
          "internalType": "string",
          "name": "password",
          "type": "string"
        }
      ],
      "payable": false,
      "stateMutability": "view",
      "type": "function"
    },
    {
      "constant": false,
      "inputs": [
        {
          "internalType": "string",
          "name": "_fname",
          "type": "string"
        },
        {
          "internalType": "string",
          "name": "_lname",
          "type": "string"
        },
        {
          "internalType": "uint256",
          "name": "_hospital_id",
          "type": "uint256"
        },
        {
          "internalType": "string",
          "name": "_uid",
          "type": "string"
        },
        {
          "internalType": "string",
          "name": "_password",
          "type": "string"
        }
      ],
      "name": "createPatient",
      "outputs": [],
      "payable": false,
      "stateMutability": "nonpayable",
      "type": "function"
    }
  ],
  "bytecode": "0x6080604052600080553480156200001557600080fd5b506200009f60405180604001604052806005815260200164105ada1a5b60da1b815250604051806040016040528060018152602001604760f81b81525060016040518060400160405280600581526020016462686a776b60d81b815250604051806040016040528060088152602001671c185cdcdddbdc9960c21b8152506200012e60201b60201c565b620001286040518060400160405280600581526020016429b0b3b0b960d91b815250604051806040016040528060018152602001604760f81b8152506001604051806040016040528060058152602001643235ba393b60d91b815250604051806040016040528060088152602001671c185cdcdddbdc9960c21b8152506200012e60201b60201c565b62000492565b6000805460019081018083556040805160c08101825282815260208082018881528284018c9052606083018b9052608083018a905260a0830188905293865284815291909420845181559151805192936200019293908501929190910190620003ed565b5060408201518051620001b0916002840191602090910190620003ed565b5060608201518051620001ce916003840191602090910190620003ed565b506080820151600482015560a08201518051620001f6916005840191602090910190620003ed565b509050507f63def75705e4a2f2f0bf8f74489a116f8b84cfd88958e781fd45887c85829e2b6000548387878786604051808781526020018060200180602001806020018681526020018060200185810385528a818151815260200191508051906020019080838360005b838110156200027a57818101518382015260200162000260565b50505050905090810190601f168015620002a85780820380516001836020036101000a031916815260200191505b5085810384528951815289516020918201918b019080838360005b83811015620002dd578181015183820152602001620002c3565b50505050905090810190601f1680156200030b5780820380516001836020036101000a031916815260200191505b5085810383528851815288516020918201918a019080838360005b838110156200034057818101518382015260200162000326565b50505050905090810190601f1680156200036e5780820380516001836020036101000a031916815260200191505b50858103825286518152865160209182019188019080838360005b83811015620003a357818101518382015260200162000389565b50505050905090810190601f168015620003d15780820380516001836020036101000a031916815260200191505b509a505050505050505050505060405180910390a15050505050565b828054600181600116156101000203166002900490600052602060002090601f016020900481019282601f106200043057805160ff191683800117855562000460565b8280016001018555821562000460579182015b828111156200046057825182559160200191906001019062000443565b506200046e92915062000472565b5090565b6200048f91905b808211156200046e576000815560010162000479565b90565b610a5280620004a26000396000f3fe608060405234801561001057600080fd5b50600436106100415760003560e01c80630f4f66081461004657806393119a8314610283578063a0303c4114610458575b600080fd5b610281600480360360a081101561005c57600080fd5b810190602081018135600160201b81111561007657600080fd5b82018360208201111561008857600080fd5b803590602001918460018302840111600160201b831117156100a957600080fd5b91908080601f0160208091040260200160405190810160405280939291908181526020018383808284376000920191909152509295949360208101935035915050600160201b8111156100fb57600080fd5b82018360208201111561010d57600080fd5b803590602001918460018302840111600160201b8311171561012e57600080fd5b91908080601f01602080910402602001604051908101604052809392919081815260200183838082843760009201919091525092958435959094909350604081019250602001359050600160201b81111561018857600080fd5b82018360208201111561019a57600080fd5b803590602001918460018302840111600160201b831117156101bb57600080fd5b91908080601f0160208091040260200160405190810160405280939291908181526020018383808284376000920191909152509295949360208101935035915050600160201b81111561020d57600080fd5b82018360208201111561021f57600080fd5b803590602001918460018302840111600160201b8311171561024057600080fd5b91908080601f016020809104026020016040519081016040528093929190818152602001838380828437600092019190915250929550610472945050505050565b005b6102a06004803603602081101561029957600080fd5b503561071d565b604051808781526020018060200180602001806020018681526020018060200185810385528a818151815260200191508051906020019080838360005b838110156102f55781810151838201526020016102dd565b50505050905090810190601f1680156103225780820380516001836020036101000a031916815260200191505b5085810384528951815289516020918201918b019080838360005b8381101561035557818101518382015260200161033d565b50505050905090810190601f1680156103825780820380516001836020036101000a031916815260200191505b5085810383528851815288516020918201918a019080838360005b838110156103b557818101518382015260200161039d565b50505050905090810190601f1680156103e25780820380516001836020036101000a031916815260200191505b50858103825286518152865160209182019188019080838360005b838110156104155781810151838201526020016103fd565b50505050905090810190601f1680156104425780820380516001836020036101000a031916815260200191505b509a505050505050505050505060405180910390f35b61046061097c565b60408051918252519081900360200190f35b6000805460019081018083556040805160c08101825282815260208082018881528284018c9052606083018b9052608083018a905260a0830188905293865284815291909420845181559151805192936104d493908501929190910190610982565b50604082015180516104f0916002840191602090910190610982565b506060820151805161050c916003840191602090910190610982565b506080820151600482015560a08201518051610532916005840191602090910190610982565b509050507f63def75705e4a2f2f0bf8f74489a116f8b84cfd88958e781fd45887c85829e2b6000548387878786604051808781526020018060200180602001806020018681526020018060200185810385528a818151815260200191508051906020019080838360005b838110156105b457818101518382015260200161059c565b50505050905090810190601f1680156105e15780820380516001836020036101000a031916815260200191505b5085810384528951815289516020918201918b019080838360005b838110156106145781810151838201526020016105fc565b50505050905090810190601f1680156106415780820380516001836020036101000a031916815260200191505b5085810383528851815288516020918201918a019080838360005b8381101561067457818101518382015260200161065c565b50505050905090810190601f1680156106a15780820380516001836020036101000a031916815260200191505b50858103825286518152865160209182019188019080838360005b838110156106d45781810151838201526020016106bc565b50505050905090810190601f1680156107015780820380516001836020036101000a031916815260200191505b509a505050505050505050505060405180910390a15050505050565b600160208181526000928352604092839020805481840180548651600296821615610100026000190190911695909504601f810185900485028601850190965285855290949193929091908301828280156107b95780601f1061078e576101008083540402835291602001916107b9565b820191906000526020600020905b81548152906001019060200180831161079c57829003601f168201915b50505060028085018054604080516020601f600019610100600187161502019094169590950492830185900485028101850190915281815295969594509092509083018282801561084b5780601f106108205761010080835404028352916020019161084b565b820191906000526020600020905b81548152906001019060200180831161082e57829003601f168201915b5050505060038301805460408051602060026001851615610100026000190190941693909304601f81018490048402820184019092528181529495949350908301828280156108db5780601f106108b0576101008083540402835291602001916108db565b820191906000526020600020905b8154815290600101906020018083116108be57829003601f168201915b50505050600483015460058401805460408051602060026001851615610100026000190190941693909304601f810184900484028201840190925281815295969395939450908301828280156109725780601f1061094757610100808354040283529160200191610972565b820191906000526020600020905b81548152906001019060200180831161095557829003601f168201915b5050505050905086565b60005481565b828054600181600116156101000203166002900490600052602060002090601f016020900481019282601f106109c357805160ff19168380011785556109f0565b828001600101855582156109f0579182015b828111156109f05782518255916020019190600101906109d5565b506109fc929150610a00565b5090565b610a1a91905b808211156109fc5760008155600101610a06565b9056fea265627a7a72315820eba4d1b8f88b5317efc951d221328751f308c9407b820e515da9e5edf1af310d64736f6c63430005100032",
  "source": "pragma solidity ^0.5.0;\n\nimport \"./Hospital.sol\";\n\ncontract Patient {\n    uint public patientCount = 0;\n\n    struct Patient {\n        uint pos;\n        string uid;\n        string fname;\n        string lname;\n\n        uint hospital_id;\n        string password;\n    }\n     event patient_node_added(\n        uint pos,\n        string uid,\n        string fname,\n        string lname,\n        \n        uint hospital_id,\n        string password\n    );\n\n    mapping(uint => Patient) public patients;\n    \n    constructor() public {\n        createPatient('Akhil','G',1,'bhjwk','password');\n        createPatient('Sagar','G',1,'dktrv','password');\n    }\n\n    function createPatient(string memory _fname, string memory _lname,  uint _hospital_id, string memory _uid, string memory _password) public {\n        patientCount ++;\n        patients[patientCount] = Patient(patientCount,_uid,_fname,_lname,_hospital_id,_password);\n        emit patient_node_added(patientCount,_uid,_fname,_lname,_hospital_id, _password);\n    }\n}",
  "sourcePath": "/home/winstone/DRIVES/Projects/MP2/Blockchain-Healthcare/contracts/Patient.sol",
  "compiler": {
    "name": "solc",
    "version": "0.5.16+commit.9c3226ce.Emscripten.clang"
  },
  "schemaVersion": "3.3.4",
  "updatedAt": "2021-04-18T14:11:03.731Z",
  "networkType": "ethereum",
  "devdoc": {
    "methods": {}
  },
  "userdoc": {
    "methods": {}
  }
}